{
  "_format": "hh-sol-artifact-1",
  "contractName": "Example",
  "sourceName": "contracts/Example.sol",
  "abi": [
    {
      "inputs": [
        {
          "internalType": "uint256",
          "name": "x",
          "type": "uint256"
        }
      ],
      "name": "addData",
      "outputs": [],
      "stateMutability": "nonpayable",
      "type": "function"
    },
    {
      "inputs": [
        {
          "internalType": "uint256",
          "name": "",
          "type": "uint256"
        }
      ],
      "name": "data",
      "outputs": [
        {
          "internalType": "uint256",
          "name": "",
          "type": "uint256"
        }
      ],
      "stateMutability": "view",
      "type": "function"
    },
    {
      "inputs": [],
      "name": "wasteGas",
      "outputs": [],
      "stateMutability": "nonpayable",
      "type": "function"
    }
  ],
  "bytecode": "0x608060405234801561001057600080fd5b50610322806100206000396000f3fe608060405234801561001057600080fd5b50600436106100415760003560e01c80633b6a02f614610046578063e5d824a714610050578063f0ba84401461006c575b600080fd5b61004e61009c565b005b61006a600480360381019061006591906101aa565b6100ce565b005b610086600480360381019061008191906101aa565b610171565b60405161009391906101e2565b60405180910390f35b6000805b600a8110156100ca5780826100b591906101fd565b915080806100c29061025d565b9150506100a0565b5050565b60005b600080549050811015610143578160008281548110610119577f4e487b7100000000000000000000000000000000000000000000000000000000600052603260045260246000fd5b90600052602060002001541415610130575061016e565b808061013b9061025d565b9150506100d1565b5060008190806001815401808255809150506001900390600052602060002001600090919091909150555b50565b6000818154811061018157600080fd5b906000526020600020016000915090505481565b6000813590506101a4816102d5565b92915050565b6000602082840312156101bc57600080fd5b60006101ca84828501610195565b91505092915050565b6101dc81610253565b82525050565b60006020820190506101f760008301846101d3565b92915050565b600061020882610253565b915061021383610253565b9250827fffffffffffffffffffffffffffffffffffffffffffffffffffffffffffffffff03821115610248576102476102a6565b5b828201905092915050565b6000819050919050565b600061026882610253565b91507fffffffffffffffffffffffffffffffffffffffffffffffffffffffffffffffff82141561029b5761029a6102a6565b5b600182019050919050565b7f4e487b7100000000000000000000000000000000000000000000000000000000600052601160045260246000fd5b6102de81610253565b81146102e957600080fd5b5056fea2646970667358221220e8cc8b34880eeeb2a1b10bff9709a4ac6d45158f6f0164be533cbe62e4c9fbc364736f6c63430008000033",
  "linkReferences": {},
  "deployedLinkReferences": {}
}